{
  "contractName": "piggyBank",
  "abi": [
    {
      "inputs": [
        {
          "internalType": "address payable",
          "name": "_piggy",
          "type": "address"
        }
      ],
      "stateMutability": "nonpayable",
      "type": "constructor"
    },
    {
      "inputs": [],
      "name": "failed",
      "type": "error"
    },
    {
      "anonymous": false,
      "inputs": [
        {
          "indexed": true,
          "internalType": "enum piggyBank.Post",
          "name": "post",
          "type": "uint8"
        }
      ],
      "name": "log",
      "type": "event"
    },
    {
      "inputs": [
        {
          "internalType": "address",
          "name": "",
          "type": "address"
        }
      ],
      "name": "ledger",
      "outputs": [
        {
          "internalType": "uint256",
          "name": "",
          "type": "uint256"
        }
      ],
      "stateMutability": "view",
      "type": "function",
      "constant": true
    },
    {
      "inputs": [
        {
          "internalType": "address",
          "name": "",
          "type": "address"
        }
      ],
      "name": "userInterval",
      "outputs": [
        {
          "internalType": "uint256",
          "name": "",
          "type": "uint256"
        }
      ],
      "stateMutability": "view",
      "type": "function",
      "constant": true
    },
    {
      "inputs": [
        {
          "internalType": "address",
          "name": "",
          "type": "address"
        }
      ],
      "name": "usersInfo",
      "outputs": [
        {
          "internalType": "uint256",
          "name": "amount",
          "type": "uint256"
        },
        {
          "internalType": "uint256",
          "name": "deadline",
          "type": "uint256"
        },
        {
          "internalType": "uint256",
          "name": "interval",
          "type": "uint256"
        }
      ],
      "stateMutability": "view",
      "type": "function",
      "constant": true
    },
    {
      "inputs": [
        {
          "internalType": "address payable",
          "name": "saver",
          "type": "address"
        },
        {
          "internalType": "uint256",
          "name": "_amount",
          "type": "uint256"
        },
        {
          "internalType": "uint256",
          "name": "_deadline",
          "type": "uint256"
        },
        {
          "internalType": "uint256",
          "name": "_timing",
          "type": "uint256"
        }
      ],
      "name": "setAccount",
      "outputs": [],
      "stateMutability": "nonpayable",
      "type": "function"
    },
    {
      "inputs": [
        {
          "internalType": "address payable",
          "name": "saver",
          "type": "address"
        },
        {
          "internalType": "uint256",
          "name": "amount",
          "type": "uint256"
        }
      ],
      "name": "save",
      "outputs": [],
      "stateMutability": "payable",
      "type": "function",
      "payable": true
    },
    {
      "inputs": [
        {
          "internalType": "address payable",
          "name": "owner",
          "type": "address"
        },
        {
          "internalType": "uint256",
          "name": "amt",
          "type": "uint256"
        }
      ],
      "name": "withdraw",
      "outputs": [],
      "stateMutability": "payable",
      "type": "function",
      "payable": true
    }
  ],
  "bytecode": "0x60a060405234801561001057600080fd5b50604051610cce380380610cce833981810160405281019061003291906100cf565b8073ffffffffffffffffffffffffffffffffffffffff1660808173ffffffffffffffffffffffffffffffffffffffff1681525050506100fc565b600080fd5b600073ffffffffffffffffffffffffffffffffffffffff82169050919050565b600061009c82610071565b9050919050565b6100ac81610091565b81146100b757600080fd5b50565b6000815190506100c9816100a3565b92915050565b6000602082840312156100e5576100e461006c565b5b60006100f3848285016100ba565b91505092915050565b608051610bb061011e600039600081816103ee01526106920152610bb06000f3fe6080604052600436106100555760003560e01c806346322ade1461005a5780635d0eaaaf14610097578063618174f2146100d6578063ee7d5150146100f2578063f3fef3a31461011b578063fbfa941f14610137575b600080fd5b34801561006657600080fd5b50610081600480360381019061007c9190610847565b610174565b60405161008e919061088d565b60405180910390f35b3480156100a357600080fd5b506100be60048036038101906100b99190610847565b61018c565b6040516100cd939291906108a8565b60405180910390f35b6100f060048036038101906100eb9190610949565b6101b6565b005b3480156100fe57600080fd5b5061011960048036038101906101149190610989565b61053a565b005b61013560048036038101906101309190610949565b610690565b005b34801561014357600080fd5b5061015e60048036038101906101599190610847565b6107cc565b60405161016b919061088d565b60405180910390f35b60086020528060005260406000206000915090505481565b60036020528060005260406000206000915090508060000154908060010154908060020154905083565b600942908060018154018082558091505060019003906000526020600020016000909190919091505560005b600960026009805490506101f69190610a1f565b8154811061020757610206610a53565b5b90600052602060002001548110156102a057600860008473ffffffffffffffffffffffffffffffffffffffff1673ffffffffffffffffffffffffffffffffffffffff168152602001908152602001600020546009828154811061026d5761026c610a53565b5b90600052602060002001546102829190610a82565b421161028d57600080fd5b808061029890610ad8565b9150506101e2565b503373ffffffffffffffffffffffffffffffffffffffff168273ffffffffffffffffffffffffffffffffffffffff16146102d957600080fd5b600360008373ffffffffffffffffffffffffffffffffffffffff1673ffffffffffffffffffffffffffffffffffffffff16815260200190815260200160002060000154811461032757600080fd5b60005b600180549050811015610535578273ffffffffffffffffffffffffffffffffffffffff166001828154811061036257610361610a53565b5b9060005260206000200160009054906101000a900473ffffffffffffffffffffffffffffffffffffffff1673ffffffffffffffffffffffffffffffffffffffff1614156104f057816000808573ffffffffffffffffffffffffffffffffffffffff1673ffffffffffffffffffffffffffffffffffffffff168152602001908152602001600020819055507f000000000000000000000000000000000000000000000000000000000000000073ffffffffffffffffffffffffffffffffffffffff166108fc839081150290604051600060405180830381858888f19350505050158015610452573d6000803e3d6000fd5b506000600181111561046757610466610b21565b5b7f5ddf586f10053ca0b2028c82acf5cde750bc7c084e1171f639ec37da3aa8719660405160405180910390a2600360008473ffffffffffffffffffffffffffffffffffffffff1673ffffffffffffffffffffffffffffffffffffffff16815260200190815260200160002060010160008154809291906104e690610b50565b9190505550610522565b6040517fba414fa600000000000000000000000000000000000000000000000000000000815260040160405180910390fd5b808061052d90610ad8565b91505061032a565b505050565b6001849080600181540180825580915050600190039060005260206000200160009091909190916101000a81548173ffffffffffffffffffffffffffffffffffffffff021916908373ffffffffffffffffffffffffffffffffffffffff16021790555060405180606001604052808481526020018381526020014281525060046000820151816000015560208201518160010155604082015181600201559050506004600360008673ffffffffffffffffffffffffffffffffffffffff1673ffffffffffffffffffffffffffffffffffffffff16815260200190815260200160002060008201548160000155600182015481600101556002820154816002015590505080600781905550600754600860008673ffffffffffffffffffffffffffffffffffffffff1673ffffffffffffffffffffffffffffffffffffffff1681526020019081526020016000208190555050505050565b7f000000000000000000000000000000000000000000000000000000000000000073ffffffffffffffffffffffffffffffffffffffff163373ffffffffffffffffffffffffffffffffffffffff16146106e857600080fd5b6000808373ffffffffffffffffffffffffffffffffffffffff1673ffffffffffffffffffffffffffffffffffffffff16815260200190815260200160002054811461073257600080fd5b6000600360008473ffffffffffffffffffffffffffffffffffffffff1673ffffffffffffffffffffffffffffffffffffffff168152602001908152602001600020600101541461078157600080fd5b8173ffffffffffffffffffffffffffffffffffffffff166108fc829081150290604051600060405180830381858888f193505050501580156107c7573d6000803e3d6000fd5b505050565b60006020528060005260406000206000915090505481565b600080fd5b600073ffffffffffffffffffffffffffffffffffffffff82169050919050565b6000610814826107e9565b9050919050565b61082481610809565b811461082f57600080fd5b50565b6000813590506108418161081b565b92915050565b60006020828403121561085d5761085c6107e4565b5b600061086b84828501610832565b91505092915050565b6000819050919050565b61088781610874565b82525050565b60006020820190506108a2600083018461087e565b92915050565b60006060820190506108bd600083018661087e565b6108ca602083018561087e565b6108d7604083018461087e565b949350505050565b60006108ea826107e9565b9050919050565b6108fa816108df565b811461090557600080fd5b50565b600081359050610917816108f1565b92915050565b61092681610874565b811461093157600080fd5b50565b6000813590506109438161091d565b92915050565b600080604083850312156109605761095f6107e4565b5b600061096e85828601610908565b925050602061097f85828601610934565b9150509250929050565b600080600080608085870312156109a3576109a26107e4565b5b60006109b187828801610908565b94505060206109c287828801610934565b93505060406109d387828801610934565b92505060606109e487828801610934565b91505092959194509250565b7f4e487b7100000000000000000000000000000000000000000000000000000000600052601160045260246000fd5b6000610a2a82610874565b9150610a3583610874565b925082821015610a4857610a476109f0565b5b828203905092915050565b7f4e487b7100000000000000000000000000000000000000000000000000000000600052603260045260246000fd5b6000610a8d82610874565b9150610a9883610874565b9250827fffffffffffffffffffffffffffffffffffffffffffffffffffffffffffffffff03821115610acd57610acc6109f0565b5b828201905092915050565b6000610ae382610874565b91507fffffffffffffffffffffffffffffffffffffffffffffffffffffffffffffffff821415610b1657610b156109f0565b5b600182019050919050565b7f4e487b7100000000000000000000000000000000000000000000000000000000600052602160045260246000fd5b6000610b5b82610874565b91506000821415610b6f57610b6e6109f0565b5b60018203905091905056fea2646970667358221220ec5548f5e22f010dc42a2d322a1d529d0fdbecf2fb8b584e28701a5e3790076e64736f6c634300080b0033",
  "immutableReferences": {
    "36": [
      {
        "length": 32,
        "start": 1006
      },
      {
        "length": 32,
        "start": 1682
      }
    ]
  },
  "source": "// SPDX-License-Identifier: MIT\r\npragma solidity ^0.8.0; \r\n\r\n// contract address = '0xFE78C516Ab1bC4Eb9f9959cb769624801c638B0f'\r\n\r\ncontract piggyBank {\r\n    address payable immutable piggy;\r\n\r\n    constructor(address payable _piggy) {\r\n        piggy = _piggy;\r\n    }\r\n\r\n    error failed();\r\n\r\n    mapping(address => uint) public ledger;\r\n\r\n    address payable[] piggyUsers;\r\n\r\n    enum Post {\r\n        save,\r\n        withdraw\r\n    }\r\n\r\n    event log(Post indexed post);\r\n\r\n    uint private timelock;\r\n\r\n    struct savingInfo {\r\n        uint amount;\r\n        uint deadline;\r\n        uint interval;\r\n    } \r\n\r\n    mapping(address => savingInfo) public usersInfo;\r\n    savingInfo information;\r\n    uint timing;\r\n    mapping (address => uint) public userInterval;\r\n\r\n    function setAccount(address payable saver, uint _amount, uint _deadline, uint _timing) external {\r\n        piggyUsers.push(saver);\r\n        information = savingInfo(_amount, _deadline, block.timestamp); \r\n        usersInfo[saver] = information; \r\n        timing = _timing;\r\n        userInterval[saver] = timing;      \r\n    }\r\nuint[] aago;\r\n function save(address payable saver, uint amount) external payable {  \r\n     aago.push(block.timestamp); \r\n      for(uint i = 0; i < aago[aago.length-2]; i++) \r\n        require(block.timestamp > aago[i] + userInterval[saver]);\r\n         require(saver == msg.sender);\r\n         require(amount == usersInfo[saver].amount);\r\n         for(uint i = 0; i < piggyUsers.length; i++) {\r\n             if(piggyUsers[i] == saver) {\r\n                 ledger[saver] = amount;\r\n                 piggy.transfer(amount);\r\n                 emit log(Post.save);\r\n                 usersInfo[saver].deadline--;\r\n             } else {\r\n                 revert failed();\r\n             }\r\n         }\r\n}\r\n\r\n       modifier onlyAdmin() {\r\n        require(msg.sender == piggy);\r\n           _;\r\n       }\r\n\r\n   function withdraw(address payable owner, uint amt) external onlyAdmin payable {\r\n       require(amt == ledger[owner]);\r\n       require(usersInfo[owner].deadline == 0);\r\n       owner.transfer(amt);\r\n   }\r\n}\r\n\r\n",
  "sourcePath": "C:\\Users\\lateefat .D. Ibrahim\\Desktop\\piggy-Bank-contract-\\contracts\\piggybank.sol",
  "compiler": {
    "name": "solc",
    "version": "0.8.11+commit.d7f03943.Emscripten.clang"
  },
  "schemaVersion": "3.4.4",
  "updatedAt": "2022-08-14T09:32:35.579Z",
  "networkType": "ethereum",
  "devdoc": {
    "kind": "dev",
    "methods": {},
    "version": 1
  },
  "userdoc": {
    "kind": "user",
    "methods": {},
    "version": 1
  }
}